{
  "_format": "hh-sol-artifact-1",
  "contractName": "Dappazon",
  "sourceName": "contracts/Dappazon.sol",
  "abi": [
    {
      "inputs": [],
      "stateMutability": "nonpayable",
      "type": "constructor"
    },
    {
      "anonymous": false,
      "inputs": [
        {
          "indexed": false,
          "internalType": "string",
          "name": "name",
          "type": "string"
        },
        {
          "indexed": false,
          "internalType": "uint256",
          "name": "cost",
          "type": "uint256"
        },
        {
          "indexed": false,
          "internalType": "uint256",
          "name": "quantity",
          "type": "uint256"
        }
      ],
      "name": "List",
      "type": "event"
    },
    {
      "inputs": [
        {
          "internalType": "uint256",
          "name": "",
          "type": "uint256"
        }
      ],
      "name": "items",
      "outputs": [
        {
          "internalType": "uint256",
          "name": "id",
          "type": "uint256"
        },
        {
          "internalType": "string",
          "name": "name",
          "type": "string"
        },
        {
          "internalType": "string",
          "name": "category",
          "type": "string"
        },
        {
          "internalType": "string",
          "name": "image",
          "type": "string"
        },
        {
          "internalType": "uint256",
          "name": "cost",
          "type": "uint256"
        },
        {
          "internalType": "uint256",
          "name": "rating",
          "type": "uint256"
        },
        {
          "internalType": "uint256",
          "name": "stock",
          "type": "uint256"
        }
      ],
      "stateMutability": "view",
      "type": "function"
    },
    {
      "inputs": [
        {
          "internalType": "uint256",
          "name": "_id",
          "type": "uint256"
        },
        {
          "internalType": "string",
          "name": "_name",
          "type": "string"
        },
        {
          "internalType": "string",
          "name": "_category",
          "type": "string"
        },
        {
          "internalType": "string",
          "name": "_image",
          "type": "string"
        },
        {
          "internalType": "uint256",
          "name": "_cost",
          "type": "uint256"
        },
        {
          "internalType": "uint256",
          "name": "_rating",
          "type": "uint256"
        },
        {
          "internalType": "uint256",
          "name": "_stock",
          "type": "uint256"
        }
      ],
      "name": "list",
      "outputs": [],
      "stateMutability": "nonpayable",
      "type": "function"
    },
    {
      "inputs": [],
      "name": "name",
      "outputs": [
        {
          "internalType": "string",
          "name": "",
          "type": "string"
        }
      ],
      "stateMutability": "view",
      "type": "function"
    },
    {
      "inputs": [],
      "name": "owner",
      "outputs": [
        {
          "internalType": "address",
          "name": "",
          "type": "address"
        }
      ],
      "stateMutability": "view",
      "type": "function"
    }
  ],
  "bytecode": "0x608060405234801561001057600080fd5b5033600160006101000a81548173ffffffffffffffffffffffffffffffffffffffff021916908373ffffffffffffffffffffffffffffffffffffffff160217905550610d21806100616000396000f3fe608060405234801561001057600080fd5b506004361061004c5760003560e01c806306fdde03146100515780638da5cb5b1461006f578063bfb231d21461008d578063eea8a7e8146100c3575b600080fd5b6100596100df565b604051610066919061058a565b60405180910390f35b61007761016d565b60405161008491906105ed565b60405180910390f35b6100a760048036038101906100a29190610652565b610193565b6040516100ba979695949392919061068e565b60405180910390f35b6100dd60048036038101906100d89190610847565b61036d565b005b600080546100ec9061096c565b80601f01602080910402602001604051908101604052809291908181526020018280546101189061096c565b80156101655780601f1061013a57610100808354040283529160200191610165565b820191906000526020600020905b81548152906001019060200180831161014857829003601f168201915b505050505081565b600160009054906101000a900473ffffffffffffffffffffffffffffffffffffffff1681565b60026020528060005260406000206000915090508060000154908060010180546101bc9061096c565b80601f01602080910402602001604051908101604052809291908181526020018280546101e89061096c565b80156102355780601f1061020a57610100808354040283529160200191610235565b820191906000526020600020905b81548152906001019060200180831161021857829003601f168201915b50505050509080600201805461024a9061096c565b80601f01602080910402602001604051908101604052809291908181526020018280546102769061096c565b80156102c35780601f10610298576101008083540402835291602001916102c3565b820191906000526020600020905b8154815290600101906020018083116102a657829003601f168201915b5050505050908060030180546102d89061096c565b80601f01602080910402602001604051908101604052809291908181526020018280546103049061096c565b80156103515780601f1061032657610100808354040283529160200191610351565b820191906000526020600020905b81548152906001019060200180831161033457829003601f168201915b5050505050908060040154908060050154908060060154905087565b600160009054906101000a900473ffffffffffffffffffffffffffffffffffffffff1673ffffffffffffffffffffffffffffffffffffffff163373ffffffffffffffffffffffffffffffffffffffff16146103fd576040517f08c379a00000000000000000000000000000000000000000000000000000000081526004016103f490610a0f565b60405180910390fd5b60006040518060e0016040528089815260200188815260200187815260200186815260200185815260200184815260200183815250905080600260008a81526020019081526020016000206000820151816000015560208201518160010190816104679190610bdb565b50604082015181600201908161047d9190610bdb565b5060608201518160030190816104939190610bdb565b506080820151816004015560a0820151816005015560c082015181600601559050507ffdbe2a012c10ec01592653978eaa09b5ca60b143a0e617505b2ebcbd911ec5b88785846040516104e893929190610cad565b60405180910390a15050505050505050565b600081519050919050565b600082825260208201905092915050565b60005b83811015610534578082015181840152602081019050610519565b60008484015250505050565b6000601f19601f8301169050919050565b600061055c826104fa565b6105668185610505565b9350610576818560208601610516565b61057f81610540565b840191505092915050565b600060208201905081810360008301526105a48184610551565b905092915050565b600073ffffffffffffffffffffffffffffffffffffffff82169050919050565b60006105d7826105ac565b9050919050565b6105e7816105cc565b82525050565b600060208201905061060260008301846105de565b92915050565b6000604051905090565b600080fd5b600080fd5b6000819050919050565b61062f8161061c565b811461063a57600080fd5b50565b60008135905061064c81610626565b92915050565b60006020828403121561066857610667610612565b5b60006106768482850161063d565b91505092915050565b6106888161061c565b82525050565b600060e0820190506106a3600083018a61067f565b81810360208301526106b58189610551565b905081810360408301526106c98188610551565b905081810360608301526106dd8187610551565b90506106ec608083018661067f565b6106f960a083018561067f565b61070660c083018461067f565b98975050505050505050565b600080fd5b600080fd5b7f4e487b7100000000000000000000000000000000000000000000000000000000600052604160045260246000fd5b61075482610540565b810181811067ffffffffffffffff821117156107735761077261071c565b5b80604052505050565b6000610786610608565b9050610792828261074b565b919050565b600067ffffffffffffffff8211156107b2576107b161071c565b5b6107bb82610540565b9050602081019050919050565b82818337600083830152505050565b60006107ea6107e584610797565b61077c565b90508281526020810184848401111561080657610805610717565b5b6108118482856107c8565b509392505050565b600082601f83011261082e5761082d610712565b5b813561083e8482602086016107d7565b91505092915050565b600080600080600080600060e0888a03121561086657610865610612565b5b60006108748a828b0161063d565b975050602088013567ffffffffffffffff81111561089557610894610617565b5b6108a18a828b01610819565b965050604088013567ffffffffffffffff8111156108c2576108c1610617565b5b6108ce8a828b01610819565b955050606088013567ffffffffffffffff8111156108ef576108ee610617565b5b6108fb8a828b01610819565b945050608061090c8a828b0161063d565b93505060a061091d8a828b0161063d565b92505060c061092e8a828b0161063d565b91505092959891949750929550565b7f4e487b7100000000000000000000000000000000000000000000000000000000600052602260045260246000fd5b6000600282049050600182168061098457607f821691505b6020821081036109975761099661093d565b5b50919050565b7f4f6e6c7920746865206f776e65722063616e20706572666f726d20746869732060008201527f6f7065726174696f6e0000000000000000000000000000000000000000000000602082015250565b60006109f9602983610505565b9150610a048261099d565b604082019050919050565b60006020820190508181036000830152610a28816109ec565b9050919050565b60008190508160005260206000209050919050565b60006020601f8301049050919050565b600082821b905092915050565b600060088302610a917fffffffffffffffffffffffffffffffffffffffffffffffffffffffffffffffff82610a54565b610a9b8683610a54565b95508019841693508086168417925050509392505050565b6000819050919050565b6000610ad8610ad3610ace8461061c565b610ab3565b61061c565b9050919050565b6000819050919050565b610af283610abd565b610b06610afe82610adf565b848454610a61565b825550505050565b600090565b610b1b610b0e565b610b26818484610ae9565b505050565b5b81811015610b4a57610b3f600082610b13565b600181019050610b2c565b5050565b601f821115610b8f57610b6081610a2f565b610b6984610a44565b81016020851015610b78578190505b610b8c610b8485610a44565b830182610b2b565b50505b505050565b600082821c905092915050565b6000610bb260001984600802610b94565b1980831691505092915050565b6000610bcb8383610ba1565b9150826002028217905092915050565b610be4826104fa565b67ffffffffffffffff811115610bfd57610bfc61071c565b5b610c07825461096c565b610c12828285610b4e565b600060209050601f831160018114610c455760008415610c33578287015190505b610c3d8582610bbf565b865550610ca5565b601f198416610c5386610a2f565b60005b82811015610c7b57848901518255600182019150602085019450602081019050610c56565b86831015610c985784890151610c94601f891682610ba1565b8355505b6001600288020188555050505b505050505050565b60006060820190508181036000830152610cc78186610551565b9050610cd6602083018561067f565b610ce3604083018461067f565b94935050505056fea264697066735822122049f80bdd2284416a6d38583a28aa9737eb8742754903ed28c3ea204eb770626964736f6c63430008180033",
  "linkReferences": {},
  "deployedLinkReferences": {}
}